:100000008031AD2B00000B0019340034273400344C
:100010003D340034533400346634003471340034D9
:1000200070340034653400345534003443340034C3
:1000300033340034263400341C3400341534003496
:100040000F3400340B3400340834003406340034E8
:1000500005340034133400342030850042308400ED
:100060000008031941280530F800F701F70B36287E
:10007000F80B35282E30F700F70B3C283F28800B73
:1000800033280800EC016C08073C031C6128EB1FB7
:100090004F2821008E1222008E16532820002100A6
:1000A0008E1222008E1221008E1122008E1103105A
:1000B0002000EB0D21008E1122008E152000EC0A8D
:1000C0004328080021000E1122000E1121000E16F7
:1000D00020000E1E6D2822006628E5136508EB003F
:1000E0004220722873286608EB004220772878287F
:1000F00021000E1122000E152000080021000E1113
:1001000022000E1121000E1620000E1E892822004A
:10011000822865084038EA00EB004220E9016808BF
:1001200069020318A4286908660784000030673D47
:1001300085000008EA00EB0042200630F700F70BCC
:100140009F280000E90A8F2821000E1122000E15B9
:100150002000080021000E1122000E1121000E16B1
:1001600020000E1EB5282200AE286508EB004220B4
:10017000B928BA2821000E1122000E15200008000F
:100180007830210099001E129E161E139E171D1412
:100190001E109E101E11003023008C008E008D005A
:1001A00021001E109E101E11023023008C00003012
:1001B0008E008D0021001E109E101E1104302300A1
:1001C0008C0000308E008D0021001E109E101E112C
:1001D00023008C0001308E0000308D001230210091
:1001E0008E0020308C000C1222000C1621008E1183
:1001F00022008E1521008E1222008E1221000E1177
:1002000022000E1505302000E2002C2021000E11E6
:1002100022000E110230F700F70B0C29000021001C
:100220000E1122000E153630F700F70B15290000CD
:1002300021000E1122000E1121000E1620000E1EAC
:10024000232922001C293030EB00422027292829AD
:1002500021000E1122000E152D292E290B30200011
:10026000E5000C30E60062200C30E500E60162207B
:100270000D30E5002330E60062200E30E50031301D
:10028000E60062200F30E5003B30E60062201030CF
:10029000E5002D30E60062201130E5003B30E6003D
:1002A00062201230E5001330E60062201330E500D2
:1002B0002230E60062201430E500F830E6006220CB
:1002C0000A30E500E60162201530E5006230E60004
:1002D00062202130E500B630E60062202230E500E1
:1002E0001030E60062201830E500E6006220193088
:1002F000E5001D30E60062201A30E5001C30E60003
:1003000062201B30E500C730E60062201C30E500AB
:10031000E60162201D30E500B030E60062202330A7
:10032000E500EA30E60062202430E5002A30E600ED
:1003300062202530E500E60162202630E5001F300E
:10034000E60062202930E5005930E60062202C30BA
:10035000E5008830E60062202D30E5003130E6000F
:1003600062202E30E5000930E60062200330E5000F
:100370000730E6006220E5012930E6006220023005
:10038000E5000630E60062200730E5000430E600B4
:1003900062200830E5000530E60062200930E50003
:1003A000E60162200630E500FF30E60062203E30C4
:1003B000E5002030E7000E30E6000830E8007E203F
:1003C00021008E1122008E1136302000E500AA2077
:1003D0003330E500AA2021000E1222000E168031D3
:1003E0002000182CF801F901F701FA012100210879
:1003F000031DFD2920080319192A1030A20003103B
:100400002000EE0DEF0DF70DFA0D210021087A0204
:10041000031D0C2A20087702031C152A2008F70266
:10042000031CFA032108FA020314F80DF90DA20BBC
:10043000FF29200008008B12B801B701620DF700F8
:10044000F70DFC30F70521001D08833977049D0066
:100450002000EB016B08133C031C732A21009D1440
:100460009D18302A1C08FA001B082000E3007A08B7
:10047000E4006308B7076408B83DEB08031D492A88
:100480006408E6006308E5006408E8006308E70024
:10049000712A66086402031C572A031D532A630845
:1004A00065020318572A6608FA0065085A2A640884
:1004B000FA006308E5007A08E60064086802031C95
:1004C0006B2A031D672A6708630203186B2A6808F2
:1004D000FA0067086E2A6408FA006308E7007A08E1
:1004E000E800EB0A2A2A65083702EC006608383B68
:1004F000ED006708EC026808ED3B6D08EF006C0842
:10050000EE002100A1011230A0002000F2217908A4
:10051000E4007808E3008B16EB016308E900640847
:100520000339EA006908F8006A08F9000800103089
:100530002100A200F701FA012000EF0CEE0C031CD1
:10054000A92A21002008F7070318FA0A2108FA0748
:100550002000FA0CF70CF90CF80C2100A20B9C2AD5
:1005600020000800EB011330EA0003106A0DF900C7
:100570006B0DFA007908EC000320F7006C0A0320E9
:10058000FA007708E8007A08E90065086902031CA8
:10059000E22A031DCF2A680864020318E22A6B08C6
:1005A000EF006A08EE002100A1016430A0002000E5
:1005B00097227908E7007808E6006608F8006708DF
:1005C000F900852B6A080319EB03EA0303106A0D8F
:1005D000F9006B0DFA007908EC000320F7006C0AB3
:1005E0000320FA007708E8077A08E93D6508690200
:1005F000031C6F2B031D002B6808640203186F2B6C
:1006000064086802EC006508693BED00EF006C08C7
:10061000EE002100A1016430A0002000972279089B
:10062000E7007808E60003106A0DF9006B0DFA0088
:100630007908EC000320F7006C0A0320FA00770821
:10064000EC007A08ED006708EF006608EE007A0813
:100650002100A100200077082100A0002000F22145
:100660007908E7007808E600EB08031D3B2B6A08D1
:10067000033C0318502B04306A02EC0000306B3B43
:10068000ED00EF006C08EE002100A1016430A00035
:10069000200097227808E6077908E73DE7136A2BE0
:1006A0006B08EF006A08EE002100A1016430A00091
:1006B000200097227808E6077908E73D6608903C15
:1006C000E6006708031C670F672B0130682B013CAD
:1006D000E700E7176608F8006708F900852B6A0845
:1006E0006B04031DE22A6B08EF006A08EE0021008C
:1006F000A1016430A000200097227908E700780863
:10070000E6006608F8006708F9008031272C3630CB
:10071000E500AA203B30E500AA203F30E500640850
:10072000E60062203F30E5006308E7006208E6006B
:100730006408E8007E203530E500AA2021008E14F0
:1007400020008E1C9E2B21008E1420008E18A32BBF
:100750003A30E500AA2080314B2C850184011F30FE
:1007600083057A30210099002000BC01BB012300E1
:100770008C018E01220092019101940193012000CD
:10078000A001A101A201A301A401A501A601A70145
:10079000A801A901AA01AB01AC01AD01C030AE00B6
:1007A000AF00B000B100B200B300B400B5000A3031
:1007B000BD00BE010C30BF001D30C0008930C1003B
:1007C0002D30C2003B30C3007330C4002230C5005E
:1007D000F830C600C701C801B630C9001030CA00E1
:1007E0001830CB001D30CC001C30CD00C730CE00FF
:1007F000CF01B030D000EA30D1002A30D200D3018E
:100800001F30D4005930D5008830D6003130D700A1
:100810000B30D8000730D9002930DA000630DB0071
:100820000430DC000530DD00DE01FF30DF00C028D1
:100830000A30E2002C200430E2001B227908E30099
:100840007808E2007908E5007808E400B22A79081F
:10085000BA007808B9003B083907A8003C083A3DBF
:10086000A9000230E2001B227908AB007808AA0038
:100870000130E2001B227908AD007808AC001E3080
:10088000E2002C200230B6002030E3000830E20005
:100890003608E400872BAB08031D522C2A08FA3CCB
:1008A00003185F2C21000C1022000C14C83020000B
:1008B000E2002C2021000C1022000C1020001E3021
:0808C000E2002C201B2C630058
:020000040001F9
:04000E00843FFF1E0E
:00000001FF
;PIC16F1824
;CRC=1A4A  CREATED="18-ÆßÔÂ-13 11:28"
