:1000000003308A00E92B000061308400831300086C
:10001000031917280230F800F701F70B0D28F80B29
:100020000C289730F700F70B1328800B0A280800DC
:10003000E8016808073C031C3E28E71F2628A0109B
:10004000200883168700831287142C28A01020080C
:1000500083168700831287102010200883168700DC
:10006000831207100310E70D3528362820102008CA
:100070008316870083120714E80A19280800201144
:1000800020088316870083120711A0162008831604
:1000900087008312871A45285C087F39DE00E70055
:1000A000182052285D08E700182020112008831628
:1000B0008700831207150800201120088316870087
:1000C00083120711A0162008831687008312871A4F
:1000D00062286108E70018206D2820112008831687
:1000E0008700831207150800713083168F000F08F0
:1000F0003530831290008F018E01603083168700A7
:100100008312A00020102008831687008312071492
:10011000A010200883168700831287102011200862
:1001200083168700831207150530E1000420201193
:10013000200883168700831207119E289F2820110C
:10014000200883168700831207151B30F700F70B72
:10015000A728201120088316870083120711A016F4
:100160002008831687008312871AAF283030E700F3
:100170001820BA282011200883168700831207153B
:10018000C128DA013330D9005908840083135A1882
:1001900083170008DB000B30DC005B08DD003F202C
:1001A00001305907840083135A1883170008DB00B5
:1001B0000C30DC005B08DD003F2002305907840072
:1001C00083135A1883170008DB000D30DC005B082E
:1001D000DD003F2003305907840083135A1883172A
:1001E0000008DB000E30DC005B08DD003F2004303F
:1001F0005907840083135A1883170008DB000F3057
:10020000DC005B08DD003F200530590784008313C4
:100210005A1883170008DB001030DC005B08DD0093
:100220003F2006305907840083135A1883170008AB
:10023000DB001130DC005B08DD003F200730590790
:10024000840083135A1883170008DB001230DC0087
:100250005B08DD003F2008305907840083135A18DB
:1002600083170008DB001330DC005B08DD003F2053
:1002700009305907840083135A1883170008DB00DC
:100280001430DC005B08DD003F200A305907840091
:1002900083135A1883170008DB000A30DC005B0860
:1002A000DD003F200B305907840083135A18831751
:1002B0000008DB001530DC005B08DD003F200C305F
:1002C0005907840083135A1883170008DB00213074
:1002D000DC005B08DD003F200D30590784008313EC
:1002E0005A1883170008DB002230DC005B08DD00B1
:1002F0003F200E305907840083135A1883170008D3
:10030000DB001830DC005B08DD003F200F305907B0
:10031000840083135A1883170008DB001930DC00AF
:100320005B08DD003F2010305907840083135A1802
:1003300083170008DB001A30DC005B08DD003F207B
:1003400011305907840083135A1883170008DB0003
:100350001B30DC005B08DD003F20123059078400B1
:1003600083135A1883170008DB001C30DC005B087D
:10037000DD003F2013305907840083135A18831778
:100380000008DB001D30DC005B08DD003F2014307E
:100390005907840083135A1883170008DB002330A1
:1003A000DC005B08DD003F20153059078400831313
:1003B0005A1883170008DB002430DC005B08DD00DE
:1003C0003F2016305907840083135A1883170008FA
:1003D000DB002530DC005B08DD003F2017305907CB
:1003E000840083135A1883170008DB002630DC00D2
:1003F0005B08DD003F2018305907840083135A182A
:1004000083170008DB002930DC005B08DD003F209B
:1004100019305907840083135A1883170008DB002A
:100420002C30DC005B08DD003F201A3059078400C7
:1004300083135A1883170008DB002D30DC005B089B
:10044000DD003F201B305907840083135A1883179F
:100450000008DB002E30DC005B08DD003F201C3094
:100460005907840083135A1883170008DB000330F0
:10047000DC005B08DD003F201D305907840083133A
:100480005A1883170008DB00DC015B08DD003F2001
:100490001E305907840083135A1883170008DB00A5
:1004A0000230DC005B08DD003F201F30590784006C
:1004B00083135A1883170008DB000730DC005B0841
:1004C000DD003F2020305907840083135A1883171A
:1004D0000008DB000830DC005B08DD003F20213035
:1004E0005907840083135A1883170008DB0009306A
:1004F000DC005B08DD003F202230590784008313B5
:100500005A1883170008DB000630DC005B08DD00AA
:100510003F203E30D900DB012B30DA000830DC0010
:10052000201120088316870083120711A0162008C7
:10053000831687008312871A962A59084038DE00EE
:10054000E7001820DD015C085D020318B72A5D088A
:100550005A07840083135B1883170008DE00E70046
:1005600018200330F700F70BB32ADD0AA32A201165
:100570002008831687008312071520102008831691
:100580008700831207103630E1005C203330E10031
:100590005C20A012200883168700831287165B2C2C
:1005A000E901E8016808073C031CFC2A2010200828
:1005B0008316870083120710DD2ADE2ADF2A031044
:1005C000E90DE22AE32AE42AA01620088316870010
:1005D0008312871EED2A6914EE2A6910EF2AF02A89
:1005E000F12A201020088316870083120714F82AA6
:1005F000F92AFA2AE80AD22A6908F8000800201124
:1006000020088316870083120711A016200883167E
:1006100087008312871A052B6108C038E300E700C2
:100620001820122BD0227808E2002011200883160F
:100630008700831207151C2B6208F80008002011A0
:1006400020088316870083120711A016200883163E
:1006500087008312871A252B6108C038E600E7005F
:100660001820E5016408650203184B2B6508620732
:10067000F8006308FA000318FA0A7808E6007A0816
:10068000E700D02266088400831367188317780870
:100690008000E50A322B2011200883168700831280
:1006A00007150800DF015B08840083135C188317BB
:1006B000000DE000E00DFC30E0053430E1005C208E
:1006C0000530E10004203B30E100FF22F808031D63
:1006D0006C2B0030F800E82B2017200883168700C9
:1006E0008312071F7F2BE00B7E2B3A30E1005C204A
:1006F0003630E1005C200030F800E82B6C2B3B30FA
:10070000E100FF22F8080319D82B3F30E100201147
:1007100020088316870083120711A016200883166D
:1007200087008312871A8D2B61088038E300E70069
:1007300018209A2BD0227808E20020112008831676
:10074000870083120715A42B6208F8007808DF00E1
:100750005C08FA005B08840083137A18831700088A
:100760005F020319B52B0318D72B3F30E1005A085D
:10077000E3005908E2005F08E4001F235B088400DF
:1007800083135C1883175F0880003F30E100E301AA
:100790005D30E2000230E4001F233A30E1005C20CB
:1007A0003430E1005C205E088039F800E82BE82B4B
:1007B0005B08840083135C1883175F088000363061
:1007C000E1005C203A30E1005C200030F800E82BCA
:1007D000682C840183131F308305713083168F00CA
:1007E0000F08FF308312A000831603170908C039D1
:1007F000890003131F129F12003003178800831211
:100800008701880189010313A101A201A301A401A9
:10081000A501A601A701A801AA30A9005530AA0088
:10082000C030AB00AC00AD00AE00AF00B000B10016
:10083000B2000C30B300B4012330B5003130B60043
:100840003B30B7002D30B8003B30B9001330BA0050
:100850002230BB00F830BC00BD016230BE00B630B3
:10086000BF001030C0001830C1001D30C2001C3065
:10087000C300C730C400C501B030C600EA30C700AD
:100880002A30C800C9011F30CA005930CB00883057
:10089000CC003130CD000930CE000730CF002930F8
:1008A000D0000630D1000430D2000530D300D4018E
:1008B000FF30D50074280A30E1000420D80102304E
:1008C000D700DA012130D900DC015730DB00522B90
:1008D000F8080319912C2108AA3C031D7B2C8316D0
:1008E000051083120514C830E1000420831605109A
:1008F00083120510A1012208553C031D8C2C831680
:10090000851083128514C830E100042083168510F9
:1009100083128510A201902C8316051083120510F6
:0C092000952C83168510831285105F2C27
:04400E00C42FFF3F7D
:00000001FF
;PIC16F882
;CRC=CC31  CREATED="07-ÁùÔÂ-13 16:55"
